{"abi":[{"type":"constructor","inputs":[{"name":"_token","type":"address","internalType":"address"}],"stateMutability":"nonpayable"},{"type":"function","name":"addBeneficiary","inputs":[{"name":"beneficiary","type":"address","internalType":"address"},{"name":"totalAmount","type":"uint256","internalType":"uint256"},{"name":"cliffDuration","type":"uint256","internalType":"uint256"},{"name":"vestingDuration","type":"uint256","internalType":"uint256"}],"outputs":[],"stateMutability":"nonpayable"},{"type":"function","name":"owner","inputs":[],"outputs":[{"name":"","type":"address","internalType":"address"}],"stateMutability":"view"},{"type":"function","name":"release","inputs":[],"outputs":[],"stateMutability":"nonpayable"},{"type":"function","name":"renounceOwnership","inputs":[],"outputs":[],"stateMutability":"nonpayable"},{"type":"function","name":"revoke","inputs":[{"name":"beneficiary","type":"address","internalType":"address"}],"outputs":[],"stateMutability":"nonpayable"},{"type":"function","name":"token","inputs":[],"outputs":[{"name":"","type":"address","internalType":"contract IERC20"}],"stateMutability":"view"},{"type":"function","name":"transferOwnership","inputs":[{"name":"newOwner","type":"address","internalType":"address"}],"outputs":[],"stateMutability":"nonpayable"},{"type":"function","name":"vestedAmount","inputs":[{"name":"beneficiary","type":"address","internalType":"address"}],"outputs":[{"name":"","type":"uint256","internalType":"uint256"}],"stateMutability":"view"},{"type":"function","name":"vestings","inputs":[{"name":"","type":"address","internalType":"address"}],"outputs":[{"name":"total","type":"uint256","internalType":"uint256"},{"name":"released","type":"uint256","internalType":"uint256"},{"name":"start","type":"uint256","internalType":"uint256"},{"name":"cliff","type":"uint256","internalType":"uint256"},{"name":"duration","type":"uint256","internalType":"uint256"},{"name":"revoked","type":"bool","internalType":"bool"}],"stateMutability":"view"},{"type":"event","name":"OwnershipTransferred","inputs":[{"name":"previousOwner","type":"address","indexed":true,"internalType":"address"},{"name":"newOwner","type":"address","indexed":true,"internalType":"address"}],"anonymous":false},{"type":"event","name":"TokensReleased","inputs":[{"name":"beneficiary","type":"address","indexed":true,"internalType":"address"},{"name":"amount","type":"uint256","indexed":false,"internalType":"uint256"}],"anonymous":false},{"type":"event","name":"VestingAdded","inputs":[{"name":"beneficiary","type":"address","indexed":true,"internalType":"address"},{"name":"total","type":"uint256","indexed":false,"internalType":"uint256"}],"anonymous":false},{"type":"event","name":"VestingRevoked","inputs":[{"name":"beneficiary","type":"address","indexed":true,"internalType":"address"}],"anonymous":false},{"type":"error","name":"OwnableInvalidOwner","inputs":[{"name":"owner","type":"address","internalType":"address"}]},{"type":"error","name":"OwnableUnauthorizedAccount","inputs":[{"name":"account","type":"address","internalType":"address"}]}],"bytecode":{"object":"0x60a060405234801561000f575f5ffd5b506040516116f33803806116f38339818101604052810190610031919061020b565b335f73ffffffffffffffffffffffffffffffffffffffff168173ffffffffffffffffffffffffffffffffffffffff16036100a2575f6040517f1e4fbdf70000000000000000000000000000000000000000000000000000000081526004016100999190610245565b60405180910390fd5b6100b1816100ec60201b60201c565b508073ffffffffffffffffffffffffffffffffffffffff1660808173ffffffffffffffffffffffffffffffffffffffff16815250505061025e565b5f5f5f9054906101000a900473ffffffffffffffffffffffffffffffffffffffff169050815f5f6101000a81548173ffffffffffffffffffffffffffffffffffffffff021916908373ffffffffffffffffffffffffffffffffffffffff1602179055508173ffffffffffffffffffffffffffffffffffffffff168173ffffffffffffffffffffffffffffffffffffffff167f8be0079c531659141344cd1fd0a4f28419497f9722a3daafe3b4186f6b6457e060405160405180910390a35050565b5f5ffd5b5f73ffffffffffffffffffffffffffffffffffffffff82169050919050565b5f6101da826101b1565b9050919050565b6101ea816101d0565b81146101f4575f5ffd5b50565b5f81519050610205816101e1565b92915050565b5f602082840312156102205761021f6101ad565b5b5f61022d848285016101f7565b91505092915050565b61023f816101d0565b82525050565b5f6020820190506102585f830184610236565b92915050565b60805161146861028b5f395f818161040d015281816104b2015281816106f10152610b6701526114685ff3fe608060405234801561000f575f5ffd5b5060043610610091575f3560e01c80638da5cb5b116100645780638da5cb5b146100f5578063b095e12914610113578063daf498631461012f578063f2fde38b14610164578063fc0c546a1461018057610091565b8063384711cc14610095578063715018a6146100c557806374a8f103146100cf57806386d1a69f146100eb575b5f5ffd5b6100af60048036038101906100aa9190610d36565b61019e565b6040516100bc9190610d79565b60405180910390f35b6100cd6102b4565b005b6100e960048036038101906100e49190610d36565b6102c7565b005b6100f361059e565b005b6100fd6107de565b60405161010a9190610da1565b60405180910390f35b61012d60048036038101906101289190610de4565b610805565b005b61014960048036038101906101449190610d36565b610a9d565b60405161015b96959493929190610e62565b60405180910390f35b61017e60048036038101906101799190610d36565b610ae1565b005b610188610b65565b6040516101959190610f1c565b60405180910390f35b5f5f60015f8473ffffffffffffffffffffffffffffffffffffffff1673ffffffffffffffffffffffffffffffffffffffff1681526020019081526020015f206040518060c00160405290815f820154815260200160018201548152602001600282015481526020016003820154815260200160048201548152602001600582015f9054906101000a900460ff1615151515815250509050806060015142101561024a575f9150506102af565b8060800151816040015161025e9190610f62565b4210158061026d57508060a001515b1561027e57805f01519150506102af565b80608001518160400151426102939190610f95565b825f01516102a19190610fc8565b6102ab9190611036565b9150505b919050565b6102bc610b89565b6102c55f610c10565b565b6102cf610b89565b5f60015f8373ffffffffffffffffffffffffffffffffffffffff1673ffffffffffffffffffffffffffffffffffffffff1681526020019081526020015f2090505f815f015411610354576040517f08c379a000000000000000000000000000000000000000000000000000000000815260040161034b906110c0565b60405180910390fd5b806005015f9054906101000a900460ff16156103a5576040517f08c379a000000000000000000000000000000000000000000000000000000000815260040161039c90611128565b60405180910390fd5b5f6103af8361019e565b90505f8260010154826103c29190610f95565b90505f82845f01546103d49190610f95565b905082845f01819055508284600101819055506001846005015f6101000a81548160ff0219169083151502179055505f8211156104a8577f000000000000000000000000000000000000000000000000000000000000000073ffffffffffffffffffffffffffffffffffffffff1663a9059cbb86846040518363ffffffff1660e01b8152600401610466929190611146565b6020604051808303815f875af1158015610482573d5f5f3e3d5ffd5b505050506040513d601f19601f820116820180604052508101906104a69190611197565b505b5f811115610554577f000000000000000000000000000000000000000000000000000000000000000073ffffffffffffffffffffffffffffffffffffffff1663a9059cbb6104f46107de565b836040518363ffffffff1660e01b8152600401610512929190611146565b6020604051808303815f875af115801561052e573d5f5f3e3d5ffd5b505050506040513d601f19601f820116820180604052508101906105529190611197565b505b8473ffffffffffffffffffffffffffffffffffffffff167f68d870ac0aff3819234e8a1fc8f357b40d75212f2dc8594b97690fa205b3bab260405160405180910390a25050505050565b5f60015f3373ffffffffffffffffffffffffffffffffffffffff1673ffffffffffffffffffffffffffffffffffffffff1681526020019081526020015f2090505f815f015411610623576040517f08c379a000000000000000000000000000000000000000000000000000000000815260040161061a906110c0565b60405180910390fd5b806005015f9054906101000a900460ff1615610674576040517f08c379a000000000000000000000000000000000000000000000000000000000815260040161066b9061120c565b60405180910390fd5b5f61067e3361019e565b90505f8260010154826106919190610f95565b90505f81116106d5576040517f08c379a00000000000000000000000000000000000000000000000000000000081526004016106cc90611274565b60405180910390fd5b80836001015f8282546106e89190610f62565b925050819055507f000000000000000000000000000000000000000000000000000000000000000073ffffffffffffffffffffffffffffffffffffffff1663a9059cbb33836040518363ffffffff1660e01b815260040161074a929190611146565b6020604051808303815f875af1158015610766573d5f5f3e3d5ffd5b505050506040513d601f19601f8201168201806040525081019061078a9190611197565b503373ffffffffffffffffffffffffffffffffffffffff167fc7798891864187665ac6dd119286e44ec13f014527aeeb2b8eb3fd413df93179826040516107d19190610d79565b60405180910390a2505050565b5f5f5f9054906101000a900473ffffffffffffffffffffffffffffffffffffffff16905090565b61080d610b89565b5f73ffffffffffffffffffffffffffffffffffffffff168473ffffffffffffffffffffffffffffffffffffffff160361087b576040517f08c379a0000000000000000000000000000000000000000000000000000000008152600401610872906112dc565b60405180910390fd5b5f83116108bd576040517f08c379a00000000000000000000000000000000000000000000000000000000081526004016108b490611344565b60405180910390fd5b8181116108ff576040517f08c379a00000000000000000000000000000000000000000000000000000000081526004016108f6906113ac565b60405180910390fd5b5f60015f8673ffffffffffffffffffffffffffffffffffffffff1673ffffffffffffffffffffffffffffffffffffffff1681526020019081526020015f205f015414610980576040517f08c379a000000000000000000000000000000000000000000000000000000000815260040161097790611414565b60405180910390fd5b6040518060c001604052808481526020015f815260200142815260200183426109a99190610f62565b81526020018281526020015f151581525060015f8673ffffffffffffffffffffffffffffffffffffffff1673ffffffffffffffffffffffffffffffffffffffff1681526020019081526020015f205f820151815f01556020820151816001015560408201518160020155606082015181600301556080820151816004015560a0820151816005015f6101000a81548160ff0219169083151502179055509050508373ffffffffffffffffffffffffffffffffffffffff167f644b21690d79fb866de971982f0f2ac1f3775377bff4262ff72f2cc9bafdbee884604051610a8f9190610d79565b60405180910390a250505050565b6001602052805f5260405f205f91509050805f015490806001015490806002015490806003015490806004015490806005015f9054906101000a900460ff16905086565b610ae9610b89565b5f73ffffffffffffffffffffffffffffffffffffffff168173ffffffffffffffffffffffffffffffffffffffff1603610b59575f6040517f1e4fbdf7000000000000000000000000000000000000000000000000000000008152600401610b509190610da1565b60405180910390fd5b610b6281610c10565b50565b7f000000000000000000000000000000000000000000000000000000000000000081565b610b91610cd1565b73ffffffffffffffffffffffffffffffffffffffff16610baf6107de565b73ffffffffffffffffffffffffffffffffffffffff1614610c0e57610bd2610cd1565b6040517f118cdaa7000000000000000000000000000000000000000000000000000000008152600401610c059190610da1565b60405180910390fd5b565b5f5f5f9054906101000a900473ffffffffffffffffffffffffffffffffffffffff169050815f5f6101000a81548173ffffffffffffffffffffffffffffffffffffffff021916908373ffffffffffffffffffffffffffffffffffffffff1602179055508173ffffffffffffffffffffffffffffffffffffffff168173ffffffffffffffffffffffffffffffffffffffff167f8be0079c531659141344cd1fd0a4f28419497f9722a3daafe3b4186f6b6457e060405160405180910390a35050565b5f33905090565b5f5ffd5b5f73ffffffffffffffffffffffffffffffffffffffff82169050919050565b5f610d0582610cdc565b9050919050565b610d1581610cfb565b8114610d1f575f5ffd5b50565b5f81359050610d3081610d0c565b92915050565b5f60208284031215610d4b57610d4a610cd8565b5b5f610d5884828501610d22565b91505092915050565b5f819050919050565b610d7381610d61565b82525050565b5f602082019050610d8c5f830184610d6a565b92915050565b610d9b81610cfb565b82525050565b5f602082019050610db45f830184610d92565b92915050565b610dc381610d61565b8114610dcd575f5ffd5b50565b5f81359050610dde81610dba565b92915050565b5f5f5f5f60808587031215610dfc57610dfb610cd8565b5b5f610e0987828801610d22565b9450506020610e1a87828801610dd0565b9350506040610e2b87828801610dd0565b9250506060610e3c87828801610dd0565b91505092959194509250565b5f8115159050919050565b610e5c81610e48565b82525050565b5f60c082019050610e755f830189610d6a565b610e826020830188610d6a565b610e8f6040830187610d6a565b610e9c6060830186610d6a565b610ea96080830185610d6a565b610eb660a0830184610e53565b979650505050505050565b5f819050919050565b5f610ee4610edf610eda84610cdc565b610ec1565b610cdc565b9050919050565b5f610ef582610eca565b9050919050565b5f610f0682610eeb565b9050919050565b610f1681610efc565b82525050565b5f602082019050610f2f5f830184610f0d565b92915050565b7f4e487b71000000000000000000000000000000000000000000000000000000005f52601160045260245ffd5b5f610f6c82610d61565b9150610f7783610d61565b9250828201905080821115610f8f57610f8e610f35565b5b92915050565b5f610f9f82610d61565b9150610faa83610d61565b9250828203905081811115610fc257610fc1610f35565b5b92915050565b5f610fd282610d61565b9150610fdd83610d61565b9250828202610feb81610d61565b9150828204841483151761100257611001610f35565b5b5092915050565b7f4e487b71000000000000000000000000000000000000000000000000000000005f52601260045260245ffd5b5f61104082610d61565b915061104b83610d61565b92508261105b5761105a611009565b5b828204905092915050565b5f82825260208201905092915050565b7f4e6f2076657374696e67000000000000000000000000000000000000000000005f82015250565b5f6110aa600a83611066565b91506110b582611076565b602082019050919050565b5f6020820190508181035f8301526110d78161109e565b9050919050565b7f416c7265616479207265766f6b656400000000000000000000000000000000005f82015250565b5f611112600f83611066565b915061111d826110de565b602082019050919050565b5f6020820190508181035f83015261113f81611106565b9050919050565b5f6040820190506111595f830185610d92565b6111666020830184610d6a565b9392505050565b61117681610e48565b8114611180575f5ffd5b50565b5f815190506111918161116d565b92915050565b5f602082840312156111ac576111ab610cd8565b5b5f6111b984828501611183565b91505092915050565b7f56657374696e67207265766f6b656400000000000000000000000000000000005f82015250565b5f6111f6600f83611066565b9150611201826111c2565b602082019050919050565b5f6020820190508181035f830152611223816111ea565b9050919050565b7f4e6f7468696e6720746f2072656c6561736500000000000000000000000000005f82015250565b5f61125e601283611066565b91506112698261122a565b602082019050919050565b5f6020820190508181035f83015261128b81611252565b9050919050565b7f496e76616c6964206164647265737300000000000000000000000000000000005f82015250565b5f6112c6600f83611066565b91506112d182611292565b602082019050919050565b5f6020820190508181035f8301526112f3816112ba565b9050919050565b7f5a65726f20616d6f756e740000000000000000000000000000000000000000005f82015250565b5f61132e600b83611066565b9150611339826112fa565b602082019050919050565b5f6020820190508181035f83015261135b81611322565b9050919050565b7f496e76616c6964206475726174696f6e000000000000000000000000000000005f82015250565b5f611396601083611066565b91506113a182611362565b602082019050919050565b5f6020820190508181035f8301526113c38161138a565b9050919050565b7f416c7265616479206578697374730000000000000000000000000000000000005f82015250565b5f6113fe600e83611066565b9150611409826113ca565b602082019050919050565b5f6020820190508181035f83015261142b816113f2565b905091905056fea2646970667358221220ded5b7f073b83da7e160d7385b0d1fc5c13cafeb8b953febc66fbae89cfaafcd64736f6c634300081e0033","linkReferences":{}},"methodIdentifiers":{"addBeneficiary(address,uint256,uint256,uint256)":"b095e129","owner()":"8da5cb5b","release()":"86d1a69f","renounceOwnership()":"715018a6","revoke(address)":"74a8f103","token()":"fc0c546a","transferOwnership(address)":"f2fde38b","vestedAmount(address)":"384711cc","vestings(address)":"daf49863"},"id":11}